{
  "contractName": "TrueGrailToken",
  "abi": [
    {
      "constant": true,
      "inputs": [],
      "name": "totalSupply",
      "outputs": [
        {
          "name": "",
          "type": "uint256"
        }
      ],
      "payable": false,
      "stateMutability": "view",
      "type": "function",
      "signature": "0x18160ddd"
    },
    {
      "constant": true,
      "inputs": [
        {
          "name": "",
          "type": "uint256"
        }
      ],
      "name": "ownerships",
      "outputs": [
        {
          "name": "",
          "type": "address"
        }
      ],
      "payable": false,
      "stateMutability": "view",
      "type": "function",
      "signature": "0x3acefa20"
    },
    {
      "constant": true,
      "inputs": [
        {
          "name": "",
          "type": "uint256"
        }
      ],
      "name": "factories",
      "outputs": [
        {
          "name": "",
          "type": "address"
        }
      ],
      "payable": false,
      "stateMutability": "view",
      "type": "function",
      "signature": "0x672383c4"
    },
    {
      "constant": true,
      "inputs": [
        {
          "name": "",
          "type": "uint256"
        }
      ],
      "name": "tokenHashInfo",
      "outputs": [
        {
          "name": "",
          "type": "string"
        }
      ],
      "payable": false,
      "stateMutability": "view",
      "type": "function",
      "signature": "0x6c89d6f4"
    },
    {
      "constant": true,
      "inputs": [
        {
          "name": "",
          "type": "uint256"
        },
        {
          "name": "",
          "type": "uint256"
        }
      ],
      "name": "alloweds",
      "outputs": [
        {
          "name": "",
          "type": "address"
        }
      ],
      "payable": false,
      "stateMutability": "view",
      "type": "function",
      "signature": "0x9c4f24c3"
    },
    {
      "inputs": [
        {
          "name": "_name",
          "type": "string"
        },
        {
          "name": "_symbol",
          "type": "string"
        }
      ],
      "payable": false,
      "stateMutability": "nonpayable",
      "type": "constructor",
      "signature": "constructor"
    },
    {
      "anonymous": false,
      "inputs": [
        {
          "indexed": true,
          "name": "_from",
          "type": "address"
        },
        {
          "indexed": true,
          "name": "_to",
          "type": "address"
        },
        {
          "indexed": false,
          "name": "_tokenId",
          "type": "uint256"
        }
      ],
      "name": "Transfer",
      "type": "event",
      "signature": "0xddf252ad1be2c89b69c2b068fc378daa952ba7f163c4a11628f55a4df523b3ef"
    },
    {
      "anonymous": false,
      "inputs": [
        {
          "indexed": true,
          "name": "_owner",
          "type": "address"
        },
        {
          "indexed": true,
          "name": "_approved",
          "type": "address"
        },
        {
          "indexed": false,
          "name": "_tokenId",
          "type": "uint256"
        }
      ],
      "name": "Approval",
      "type": "event",
      "signature": "0x8c5be1e5ebec7d5bd14f71427d1e84f3dd0314c0f7b2291e5b200ac8c7c3b925"
    },
    {
      "anonymous": false,
      "inputs": [
        {
          "indexed": true,
          "name": "_issuer",
          "type": "address"
        },
        {
          "indexed": false,
          "name": "_tokenId",
          "type": "uint256"
        },
        {
          "indexed": false,
          "name": "_hashInfo",
          "type": "string"
        }
      ],
      "name": "Issue",
      "type": "event",
      "signature": "0x9a27b65b834a85153a0161940629613dcded325ecd78845ba99e2ec15d53b77b"
    },
    {
      "constant": false,
      "inputs": [
        {
          "name": "_account",
          "type": "address"
        }
      ],
      "name": "addFactory",
      "outputs": [],
      "payable": false,
      "stateMutability": "nonpayable",
      "type": "function",
      "signature": "0x29ce1ec5"
    },
    {
      "constant": false,
      "inputs": [
        {
          "name": "_tokenId",
          "type": "uint256"
        },
        {
          "name": "_hashInfo",
          "type": "string"
        }
      ],
      "name": "issueToken",
      "outputs": [],
      "payable": false,
      "stateMutability": "nonpayable",
      "type": "function",
      "signature": "0x1371a5b3"
    },
    {
      "constant": true,
      "inputs": [
        {
          "name": "_tokenId",
          "type": "uint256"
        }
      ],
      "name": "ownerOf",
      "outputs": [
        {
          "name": "_owner",
          "type": "address"
        }
      ],
      "payable": false,
      "stateMutability": "view",
      "type": "function",
      "signature": "0x6352211e"
    },
    {
      "constant": false,
      "inputs": [
        {
          "name": "_to",
          "type": "address"
        },
        {
          "name": "_tokenId",
          "type": "uint256"
        }
      ],
      "name": "approve",
      "outputs": [],
      "payable": false,
      "stateMutability": "nonpayable",
      "type": "function",
      "signature": "0x095ea7b3"
    },
    {
      "constant": false,
      "inputs": [
        {
          "name": "_to",
          "type": "address"
        },
        {
          "name": "_tokenId",
          "type": "uint256"
        }
      ],
      "name": "transfer",
      "outputs": [],
      "payable": false,
      "stateMutability": "nonpayable",
      "type": "function",
      "signature": "0xa9059cbb"
    },
    {
      "constant": true,
      "inputs": [
        {
          "name": "_tokenId",
          "type": "uint256"
        }
      ],
      "name": "tokenMetadata",
      "outputs": [
        {
          "name": "infoHash",
          "type": "string"
        }
      ],
      "payable": false,
      "stateMutability": "view",
      "type": "function",
      "signature": "0x6914db60"
    }
  ],
  "bytecode": "0x60806040523480156200001157600080fd5b50604051620012cf380380620012cf833981018060405260408110156200003757600080fd5b8101908080516401000000008111156200005057600080fd5b828101905060208101848111156200006757600080fd5b81518560018202830111640100000000821117156200008557600080fd5b50509291906020018051640100000000811115620000a257600080fd5b82810190506020810184811115620000b957600080fd5b8151856001820283011164010000000082111715620000d757600080fd5b505092919050505033600260006101000a81548173ffffffffffffffffffffffffffffffffffffffff021916908373ffffffffffffffffffffffffffffffffffffffff1602179055508160009080519060200190620001389291906200015a565b508060019080519060200190620001519291906200015a565b50505062000209565b828054600181600116156101000203166002900490600052602060002090601f016020900481019282601f106200019d57805160ff1916838001178555620001ce565b82800160010185558215620001ce579182015b82811115620001cd578251825591602001919060010190620001b0565b5b509050620001dd9190620001e1565b5090565b6200020691905b8082111562000202576000816000905550600101620001e8565b5090565b90565b6110b680620002196000396000f3fe6080604052600436106100af576000357c0100000000000000000000000000000000000000000000000000000000900463ffffffff168063095ea7b3146100b45780631371a5b31461010f57806318160ddd146101e157806329ce1ec51461020c5780633acefa201461025d5780636352211e146102d8578063672383c4146103535780636914db60146103ce5780636c89d6f4146104825780639c4f24c314610536578063a9059cbb146105bb575b600080fd5b3480156100c057600080fd5b5061010d600480360360408110156100d757600080fd5b81019080803573ffffffffffffffffffffffffffffffffffffffff16906020019092919080359060200190929190505050610616565b005b34801561011b57600080fd5b506101df6004803603604081101561013257600080fd5b81019080803590602001909291908035906020019064010000000081111561015957600080fd5b82018360208201111561016b57600080fd5b8035906020019184600183028401116401000000008311171561018d57600080fd5b91908080601f016020809104026020016040519081016040528093929190818152602001838380828437600081840152601f19601f820116905080830192505050505050509192919290505050610769565b005b3480156101ed57600080fd5b506101f6610a4e565b6040518082815260200191505060405180910390f35b34801561021857600080fd5b5061025b6004803603602081101561022f57600080fd5b81019080803573ffffffffffffffffffffffffffffffffffffffff169060200190929190505050610a54565b005b34801561026957600080fd5b506102966004803603602081101561028057600080fd5b8101908080359060200190929190505050610b84565b604051808273ffffffffffffffffffffffffffffffffffffffff1673ffffffffffffffffffffffffffffffffffffffff16815260200191505060405180910390f35b3480156102e457600080fd5b50610311600480360360208110156102fb57600080fd5b8101908080359060200190929190505050610bb7565b604051808273ffffffffffffffffffffffffffffffffffffffff1673ffffffffffffffffffffffffffffffffffffffff16815260200191505060405180910390f35b34801561035f57600080fd5b5061038c6004803603602081101561037657600080fd5b8101908080359060200190929190505050610bf4565b604051808273ffffffffffffffffffffffffffffffffffffffff1673ffffffffffffffffffffffffffffffffffffffff16815260200191505060405180910390f35b3480156103da57600080fd5b50610407600480360360208110156103f157600080fd5b8101908080359060200190929190505050610c32565b6040518080602001828103825283818151815260200191508051906020019080838360005b8381101561044757808201518184015260208101905061042c565b50505050905090810190601f1680156104745780820380516001836020036101000a031916815260200191505b509250505060405180910390f35b34801561048e57600080fd5b506104bb600480360360208110156104a557600080fd5b8101908080359060200190929190505050610ce7565b6040518080602001828103825283818151815260200191508051906020019080838360005b838110156104fb5780820151818401526020810190506104e0565b50505050905090810190601f1680156105285780820380516001836020036101000a031916815260200191505b509250505060405180910390f35b34801561054257600080fd5b506105796004803603604081101561055957600080fd5b810190808035906020019092919080359060200190929190505050610d97565b604051808273ffffffffffffffffffffffffffffffffffffffff1673ffffffffffffffffffffffffffffffffffffffff16815260200191505060405180910390f35b3480156105c757600080fd5b50610614600480360360408110156105de57600080fd5b81019080803573ffffffffffffffffffffffffffffffffffffffff16906020019092919080359060200190929190505050610de4565b005b6004600082815260200190815260200160002060009054906101000a900473ffffffffffffffffffffffffffffffffffffffff168073ffffffffffffffffffffffffffffffffffffffff163373ffffffffffffffffffffffffffffffffffffffff161415156106ed576040517f08c379a00000000000000000000000000000000000000000000000000000000081526004018080602001828103825260188152602001807f53656e646572206973206e6f7420617574686f72697a6564000000000000000081525060200191505060405180910390fd5b600560008381526020019081526020016000208390806001815401808255809150509060018203906000526020600020016000909192909190916101000a81548173ffffffffffffffffffffffffffffffffffffffff021916908373ffffffffffffffffffffffffffffffffffffffff16021790555050505050565b6007600080905060008090505b828054905081101561080057828181548110151561079057fe5b9060005260206000200160009054906101000a900473ffffffffffffffffffffffffffffffffffffffff1673ffffffffffffffffffffffffffffffffffffffff163373ffffffffffffffffffffffffffffffffffffffff1614156107f357600191505b8080600101915050610776565b5080151561089c576040517f08c379a000000000000000000000000000000000000000000000000000000000815260040180806020018281038252602c8152602001807f53656e646572206973206e6f7420616c6c6f77656420746f20646f207468697381526020017f207472616e73616374696f6e000000000000000000000000000000000000000081525060400191505060405180910390fd5b826006600086815260200190815260200160002090805190602001906108c3929190610fe5565b50336004600086815260200190815260200160002060006101000a81548173ffffffffffffffffffffffffffffffffffffffff021916908373ffffffffffffffffffffffffffffffffffffffff160217905550600560008581526020019081526020016000203390806001815401808255809150509060018203906000526020600020016000909192909190916101000a81548173ffffffffffffffffffffffffffffffffffffffff021916908373ffffffffffffffffffffffffffffffffffffffff160217905550503373ffffffffffffffffffffffffffffffffffffffff167f9a27b65b834a85153a0161940629613dcded325ecd78845ba99e2ec15d53b77b85856040518083815260200180602001828103825283818151815260200191508051906020019080838360005b83811015610a0d5780820151818401526020810190506109f2565b50505050905090810190601f168015610a3a5780820380516001836020036101000a031916815260200191505b50935050505060405180910390a250505050565b60035481565b600260009054906101000a900473ffffffffffffffffffffffffffffffffffffffff168073ffffffffffffffffffffffffffffffffffffffff163373ffffffffffffffffffffffffffffffffffffffff16141515610b1a576040517f08c379a00000000000000000000000000000000000000000000000000000000081526004018080602001828103825260188152602001807f53656e646572206973206e6f7420617574686f72697a6564000000000000000081525060200191505060405180910390fd5b60078290806001815401808255809150509060018203906000526020600020016000909192909190916101000a81548173ffffffffffffffffffffffffffffffffffffffff021916908373ffffffffffffffffffffffffffffffffffffffff160217905550505050565b60046020528060005260406000206000915054906101000a900473ffffffffffffffffffffffffffffffffffffffff1681565b60006004600083815260200190815260200160002060009054906101000a900473ffffffffffffffffffffffffffffffffffffffff169050919050565b600781815481101515610c0357fe5b906000526020600020016000915054906101000a900473ffffffffffffffffffffffffffffffffffffffff1681565b6060600660008381526020019081526020016000208054600181600116156101000203166002900480601f016020809104026020016040519081016040528092919081815260200182805460018160011615610100020316600290048015610cdb5780601f10610cb057610100808354040283529160200191610cdb565b820191906000526020600020905b815481529060010190602001808311610cbe57829003601f168201915b50505050509050919050565b60066020528060005260406000206000915090508054600181600116156101000203166002900480601f016020809104026020016040519081016040528092919081815260200182805460018160011615610100020316600290048015610d8f5780601f10610d6457610100808354040283529160200191610d8f565b820191906000526020600020905b815481529060010190602001808311610d7257829003601f168201915b505050505081565b600560205281600052604060002081815481101515610db257fe5b906000526020600020016000915091509054906101000a900473ffffffffffffffffffffffffffffffffffffffff1681565b60056000828152602001908152602001600020600080905060008090505b8280549050811015610e8c578281815481101515610e1c57fe5b9060005260206000200160009054906101000a900473ffffffffffffffffffffffffffffffffffffffff1673ffffffffffffffffffffffffffffffffffffffff163373ffffffffffffffffffffffffffffffffffffffff161415610e7f57600191505b8080600101915050610e02565b50801515610f28576040517f08c379a000000000000000000000000000000000000000000000000000000000815260040180806020018281038252602c8152602001807f53656e646572206973206e6f7420616c6c6f77656420746f20646f207468697381526020017f207472616e73616374696f6e000000000000000000000000000000000000000081525060400191505060405180910390fd5b836004600085815260200190815260200160002060006101000a81548173ffffffffffffffffffffffffffffffffffffffff021916908373ffffffffffffffffffffffffffffffffffffffff1602179055508373ffffffffffffffffffffffffffffffffffffffff163373ffffffffffffffffffffffffffffffffffffffff167fddf252ad1be2c89b69c2b068fc378daa952ba7f163c4a11628f55a4df523b3ef856040518082815260200191505060405180910390a350505050565b828054600181600116156101000203166002900490600052602060002090601f016020900481019282601f1061102657805160ff1916838001178555611054565b82800160010185558215611054579182015b82811115611053578251825591602001919060010190611038565b5b5090506110619190611065565b5090565b61108791905b8082111561108357600081600090555060010161106b565b5090565b9056fea165627a7a72305820e685fa9bc8c72525b0fb55d9c2523fc5e3e7dcf766fd8823d1cbe721a87549ce0029",
  "source": "pragma solidity >=0.4.20;\n\ncontract TrueGrailToken {\n\n    string private name;\n    string private symbol;\n    address private creator;\n    uint256 public totalSupply;\n    \n    // ERC20 compatible functions\n    // key: token id, value: address of the owner\n    mapping(uint256 => address) public ownerships;\n    // key: token id, value: group of adresses that are allowed to use the token \n    mapping(uint256 => address[]) public alloweds;\n\n    mapping (uint256 => string) public tokenHashInfo;\n    // mapping(address => uint256) balances;\n\n    address[] public factories;\n\n    // modifier\n\n    modifier onlyByUser(address _account) {\n      require(msg.sender == _account, \"Sender is not authorized\");\n      _;\n    }\n\n   modifier onlyByGroup(address[] storage _group) {\n       bool isAllowed = false;\n       for (uint i=0; i < _group.length; i++) {\n            if (msg.sender == _group[i]) {\n                isAllowed = true;\n            }\n       }\n       require(isAllowed, \"Sender is not allowed to do this transaction\");\n       _;\n   }\n   \n\n    constructor (string memory _name, string memory _symbol) public {\n        creator = msg.sender;\n        name = _name;\n        symbol = _symbol;\n    }\n\n    function addFactory(address _account) public onlyByUser(creator) {\n        factories.push(_account);\n    }\n\n    function issueToken(uint256 _tokenId, string memory _hashInfo) public onlyByGroup(factories) {\n        tokenHashInfo[_tokenId] = _hashInfo;\n        ownerships[_tokenId] = msg.sender;\n        alloweds[_tokenId].push(msg.sender);\n\n        emit Issue(msg.sender, _tokenId, _hashInfo);\n    }\n\n    // function balanceOf(address _owner) public view returns (uint balance) {\n    //     return balances[_owner];\n    // }\n\n    // Functions that define ownership\n    function ownerOf(uint256 _tokenId) public view returns (address _owner) {\n        return ownerships[_tokenId];\n    }\n\n    function approve(address _to, uint256 _tokenId) public onlyByUser(ownerships[_tokenId]) {\n        alloweds[_tokenId].push(_to);\n    }\n\n    function transfer(address _to, uint256 _tokenId) public onlyByGroup(alloweds[_tokenId]) {\n        ownerships[_tokenId] = _to;\n        emit Transfer(msg.sender, _to, _tokenId);\n    }\n\n    // function tokenOfOwnerByIndex(address _owner, uint256 _index) public view returns (uint tokenId);\n    // Token metadata\n    function tokenMetadata(uint256 _tokenId) public view returns (string memory infoHash) {\n        return tokenHashInfo[_tokenId];\n    }\n    // Events\n    event Transfer(address indexed _from, address indexed _to, uint256 _tokenId);\n    event Approval(address indexed _owner, address indexed _approved, uint256 _tokenId);\n    event Issue(address indexed _issuer, uint256 _tokenId, string _hashInfo);\n    \n}",
  "sourcePath": "/Users/phat.pham/Documents/TrueGrailToken/contracts/TrueGrailToken.sol",
  "compiler": {
    "name": "solc",
    "version": "0.5.0+commit.1d4f565a.Emscripten.clang"
  },
  "schemaVersion": "3.0.2",
  "updatedAt": "2019-04-04T10:03:23.630Z",
  "devdoc": {
    "methods": {}
  },
  "userdoc": {
    "methods": {}
  }
}